:020000040800F2
:1000000060060020B10100088F0300088703000884
:100010008B0300086B020008010A000800000000C2
:10002000000000000000000000000000D5030008F0
:100030006F0200080000000091030008C1040008DE
:10004000CB010008CB010008CB010008CB01000860
:10005000CB010008CB010008CB010008CB01000850
:10006000CB010008CB010008CB010008CB01000840
:10007000CB010008CB010008CB010008CB01000830
:10008000CB010008CB010008CB010008CB01000820
:10009000CB010008CB010008CB010008CB01000810
:1000A000CB010008CB010008CB010008CB01000800
:1000B000CB010008CB010008CB010008CB010008F0
:1000C000CB010008CB010008CB010008CB010008E0
:1000D000CB010008CB010008CB010008CB010008D0
:1000E000CB010008CB010008CB010008CB010008C0
:1000F000CB010008CB010008CB010008CB010008B0
:10010000CB010008CB010008CB010008CB0100089F
:10011000CB010008CB010008CB010008CB0100088F
:10012000CB010008CB010008CB010008CB0100087F
:1001300000F002F800F02CF80AA090E8000C8244CD
:100140008344AAF10107DA4501D100F021F8AFF2AA
:10015000090EBAE80F0013F0010F18BFFB1A43F0A5
:1001600001031847080A0000180A000000230024B1
:1001700000250026103A28BF78C1FBD8520728BFB7
:1001800030C148BF0B6070471FB51FBD10B510BD13
:1001900000F031F81146FFF7F7FF00F041FC00F0E6
:1001A0004FF803B4FFF7F2FF03BC00F057F800006C
:1001B0000948804709480047FEE7FEE7FEE7FEE7FB
:1001C000FEE7FEE7FEE7FEE7FEE7FEE70448054937
:1001D000054A064B70470000C504000831010008BD
:1001E0006000002060060020600200206002002005
:1001F000704770477047754600F02CF8AE46050012
:100200006946534620F00700854618B020B5FFF731
:10021000DDFFBDE820404FF000064FF000074FF033
:1002200000084FF0000B21F00701AC46ACE8C00914
:10023000ACE8C009ACE8C009ACE8C0098D4670471D
:1002400010B50446AFF300802046BDE81040FFF72C
:10025000A8BF000000487047000000200149182096
:10026000ABBEFEE726000200704700BFFEE7704706
:100270002DE9F0410246002500260020002300243D
:10028000002791F803C00CF00F0591F803C00CF0A3
:10029000100CBCF1000F03D091F802C04CEA050528
:1002A00091F800C0BCF1000F31D0146800202BE0A1
:1002B0004FF0010C0CFA00F3B1F800C00CEA030691
:1002C0009E4220D183004FF00F0C0CFA03F7BC4381
:1002D00005FA03FC4CEA040491F803C0BCF1280FB2
:1002E00006D14FF0010C0CFA00FCC2F814C00AE071
:1002F00091F803C0BCF1480F05D14FF0010C0CFA86
:1003000000FCC2F810C0401C0828D1D31460B1F81A
:1003100000C0BCF1FF0F34DD546800202EE000F176
:10032000080C4FF0010808FA0CF3B1F800C00CEA11
:1003300003069E4221D183004FF00F0C0CFA03F705
:10034000BC4305FA03FC4CEA040491F803C0BCF179
:10035000280F05D100F1080C08FA0CF8C2F8148037
:1003600091F803C0BCF1480F07D100F1080C4FF021
:10037000010808FA0CF8C2F81080401C0828CED3F7
:100380005460BDE8F08100BFFEE700BFFEE77047A4
:100390007047000029B1064AD2690243044BDA6172
:1003A00004E0034AD2698243014BDA6170470000DE
:1003B0000010024029B1064A92690243044B9A6137
:1003C00004E0034A92698243014B9A61704700003E
:1003D00000100240704710B500F002F810BD000098
:1003E0000CB50020019000903348006840F4803044
:1003F0003149086000BF3048006800F400300090C8
:100400000198401C0190009818B90198B0F5A06FB0
:10041000F1D12948006800F4003010B101200090AB
:1004200001E0002000900098012843D12348006893
:1004300040F01000214908600846006820F00300E1
:1004400008600846006840F0020008601A484068EA
:10045000194948600846406848600846406840F4CA
:10046000806048600846406820F47C104860084678
:10047000406840F4E81048600846006840F080702A
:10048000086000BF0C48006800F000700028F9D038
:100490000948406820F00300074948600846406862
:1004A00040F00200486000BF0348406800F00C00C4
:1004B0000828F9D10CBD00000010024000200240C5
:1004C0007047000010B51348006840F00100114962
:1004D000086008464068104908400E4948600846D0
:1004E00000680E4908400B4908600846006820F47F
:1004F000802008600846406820F4FE0048604FF401
:100500001F008860FFF767FF4FF000600449086034
:1005100010BD0000001002400000FFF8FFFFF6FED3
:1005200008ED00E0F0B50C46154600220021068CCF
:100530004FF6FE773E400684028B018C4FF60C7618
:1005400032407E1C06EA03162E433243104EB04260
:100550000ED0104EB0420BD0B0F1804F08D00E4EEE
:10056000B04205D00D4EB04202D00D4EB04206D181
:100570004FF6FD76314044F00106314305E04FF679
:10058000F576314044F00106314302830184F0BD29
:10059000002C0140003401400004004000080040ED
:1005A000000C0040F0B50C46154600220021002644
:1005B000078C4FF6EF7C07EA0C070784028B018C4F
:1005C0004FF6FF7707EA041640F6FF473A404FF62A
:1005D000FF7707EA03373A434FF6FF7707EA052725
:1005E0003A43114FB8420ED0104FB8420BD0B0F181
:1005F000804F08D00E4FB84205D00E4FB84202D0FF
:100600000D4FB84206D14FF6DF77394046F010075C
:10061000394305E04FF65F77394044F0100739431E
:1006200002830184F0BD0000002C01400034014031
:100630000004004000080040000C0040F0B50C46EB
:100640001546002200210026078C4FF6FF6C07EAB2
:100650000C070784828B018C4FF6FF7707EA04268C
:100660004FF60C773A404FF6FF7707EA03172F4310
:100670003A43114FB8420ED0104FB8420BD0B0F1F0
:10068000804F08D00E4FB84205D00E4FB84202D06E
:100690000D4FB84206D14FF6FF57394046F48077E8
:1006A000394305E04FF2FF57394044F4807739432E
:1006B00082830184F0BD0000002C01400034014021
:1006C0000004004000080040000C0040F0B50C465B
:1006D0001546002200210026078C4EF6FF7C07EA13
:1006E0000C070784828B018C4FF6FF7707EA0436EC
:1006F00040F6FF473A404FF6FF7707EA05273A43AF
:100700004FF6FF7707EA03373A43114FB8420ED04E
:10071000104FB8420BD0B0F1804F08D00E4FB84206
:1007200005D00E4FB84202D00D4FB84206D14DF65B
:10073000FF77394046F48057394305E047F6FF57C5
:10074000394044F48057394382830184F0BD00006E
:10075000002C01400034014000040040000800402B
:10076000000C004021B1028842F00102028004E046
:1007700002884FF6FE731A40028070470146888E49
:100780007047000070B505460C46244885420ED0DF
:10079000234885420BD0B5F1804F08D021488542CF
:1007A00005D02148854202D02048854200D100E092
:1007B00000BF208850B92389A28861882846FFF7A6
:1007C000B1FEE188284600F09DF825E02088042845
:1007D0000AD12389A28861882846FFF7E3FEE188D1
:1007E000284600F098F817E0208808280AD12389C5
:1007F000A28861882846FFF721FFE188284600F09B
:1008000097F809E02389A28861882846FFF75EFFF0
:10081000E188284600F095F870BD0000002C0140EA
:10082000003401400004004000080040000C00407B
:1008300001894FF6F87211400181704770B50024AC
:1008400000220023058C4FF6EF7635400584028C9C
:100850008388048B48F6FF752C404FF6FF452C40EB
:100860000D884FF6FF7606EA05252C434FF6DF7517
:100870002A400D8906EA05152A434D8806EA051522
:100880002A43154DA84202D0144DA8421DD14FF65F
:100890007F752A404D894FF6FF7606EA05152A43F3
:1008A0004FF6BF752A408D8806EA05152A434FF694
:1008B000FF352B404FF2FF752B408D8906EA8505E9
:1008C0002B43CD8906EA85052B4383800483CD889D
:1008D0000587028470BD0000002C014000340140F7
:1008E0000A46002101894FF68F7319401143018197
:1008F000704702894FF6F8731A40028102890A4351
:1009000002817047028B4FF6F3731A400283028B09
:100910000A4302837047028B4FF2FF331A4002836F
:10092000028B4FF6FF7303EA01231A4302837047D9
:10093000828B4FF6F3731A408283828B0A43828341
:100940007047828B4FF2FF331A408283828B4FF6BF
:10095000FF7303EA01231A4382837047002202884F
:100960001D4B98420ED01D4B98420BD0B0F1804FDA
:1009700008D01B4B984205D01A4B984202D01A4B14
:10098000984204D14FF68F731A404B881A43174B85
:10099000984207D0164B984204D04FF6FF431A40B6
:1009A000CB881A4302808B8883850B8803850A4B8A
:1009B00098420BD0094B984208D00E4B984205D074
:1009C0000D4B984202D00D4B984201D10B7A038611
:1009D0000123838270470000002C01400034014055
:1009E0000004004000080040000C004000100040DF
:1009F0000014004000400140004401400048014014
:100A000000BFFEE710B50448FFF7B8FE034991FBAD
:100A1000F0F080B210BD000000040040A08601008C
:100A200000F050F800F004F801E0FFF7EBFFFCE7FE
:100A300000B589B001210846FFF7ACFC0121042074
:100A4000FFF7B8FC18208DF823000220ADF8200035
:100A500003208DF8220008A91948FFF709FC4FF080
:100A60008040FFF7E5FE0020ADF81A00ADF8160053
:100A700042F20F70ADF8180040F2CF20ADF814002C
:100A800000208DF81C0005A94FF08040FFF766FF9D
:100A90006020ADF804000020ADF80C000120ADF896
:100AA000060041F28830ADF80A0001A9C006FFF740
:100AB000C5FE01218807FFF755FE09B000BD000003
:100AC0000008014000B587B001210220FFF762FC59
:100AD00001210820FFF76EFC48208DF81B00012043
:100AE000ADF8180003208DF81A0006A91D48FFF77D
:100AF000BFFB1D48FFF79CFE0020ADF81200ADF8CB
:100B00000E0042F20F70ADF8100040F2CF20ADF8A9
:100B10000C0000208DF8140003A91348FFF71EFFF6
:100B20000020ADF800000F20ADF808000A20ADF855
:100B300002000020ADF806000120ADF8040069466F
:100B40000948FFF71FFE50210748FFF7C9FE04219F
:100B50000548FFF7CEFE01210348FFF703FE07B06B
:100B600000BD0000000C0140000400407C0B0008A8
:0C0B700000000020600600006C0100087E
:0400000508000131BD
:00000001FF
