:020000040800F2
:1000000060060020B1010008E7040008DF040008D2
:10001000E30400086B0200088D06000800000000E1
:1000200000000000000000000000000021050008A2
:100030006F02000800000000FD0400080D06000823
:10004000CB010008CB010008CB010008CB01000860
:10005000CB010008CB010008CB010008CB01000850
:10006000CB010008CB010008CB010008CB01000840
:10007000CB010008CB010008CB010008CB01000830
:10008000CB010008CB010008CB010008CB01000820
:10009000CB010008CB010008CB010008CB01000810
:1000A000CB010008CB010008CB010008CB01000800
:1000B000CB010008CB010008CB010008CB010008F0
:1000C000CB010008CB010008CB010008CB010008E0
:1000D000CB010008CB010008CB010008CB010008D0
:1000E000CB010008CB010008CB010008CB010008C0
:1000F000CB010008CB010008CB010008CB010008B0
:10010000CB010008CB01000871060008CB010008F4
:10011000CB010008CB010008CB010008CB0100088F
:10012000CB010008CB010008CB010008CB0100087F
:1001300000F002F800F02CF80AA090E8000C8244CD
:100140008344AAF10107DA4501D100F021F8AFF2AA
:10015000090EBAE80F0013F0010F18BFFB1A43F0A5
:100160000103184718060000280600000023002499
:1001700000250026103A28BF78C1FBD8520728BFB7
:1001800030C148BF0B6070471FB51FBD10B510BD13
:1001900000F031F81146FFF7F7FF00F0A3FA00F086
:1001A0004FF803B4FFF7F2FF03BC00F057F800006C
:1001B0000948804709480047FEE7FEE7FEE7FEE7FB
:1001C000FEE7FEE7FEE7FEE7FEE7FEE70448054937
:1001D000054A064B7047000011060008310100086F
:1001E0006000002060060020600200206002002005
:1001F000704770477047754600F02CF8AE46050012
:100200006946534620F00700854618B020B5FFF731
:10021000DDFFBDE820404FF000064FF000074FF033
:1002200000084FF0000B21F00701AC46ACE8C00914
:10023000ACE8C009ACE8C009ACE8C0098D4670471D
:1002400010B50446AFF300802046BDE81040FFF72C
:10025000A8BF000000487047000000200149182096
:10026000ABBEFEE726000200704700BFFEE7704706
:1002700000B5034603E04FF47A7000F005F8181E4D
:10028000A3F10103F7D100BD00EBC001C9004FF09D
:10029000E0225161002191610521116100BF4FF001
:1002A000E021096901F480310029F8D004214FF0E0
:1002B000E0221161704700000149086070470000AA
:1002C00014040140014600200022074B1B6803EA8A
:1002D0000102054B14331B680B4013B10AB1012016
:1002E00000E0002070470000000401400021234985
:1002F0008279002A3AD00A46126803689A430B466C
:100300001A600A1D126803689A430B1D1A6002796D
:1003100011440A6803681A430A60184A08321268CE
:1003200003689A43154B08331A601A1D1268036854
:100330009A43124B0C331A604279102A0ED11A1FBD
:10034000126803681A430D4B08331A601A1D1268AD
:1003500003681A43094B0C331A600DE007494279D0
:1003600011440A6803681A430A6005E002791144DF
:100370000A6803689A430A6070470000000401405D
:1003800030B500228B071C0F0F2303FA04F20B4B2E
:100390008C1053F824309343084C8D1044F82530CA
:1003A00023468C1053F824308C07240F00FA04F4F1
:1003B0002343024C8D1044F8253030BD0800014025
:1003C0002DE9F041024600250026002000230024EC
:1003D000002791F803C00CF00F0591F803C00CF052
:1003E000100CBCF1000F03D091F802C04CEA0505D7
:1003F00091F800C0BCF1000F31D0146800202BE050
:100400004FF0010C0CFA00F3B1F800C00CEA03063F
:100410009E4220D183004FF00F0C0CFA03F7BC432F
:1004200005FA03FC4CEA040491F803C0BCF1280F60
:1004300006D14FF0010C0CFA00FCC2F814C00AE01F
:1004400091F803C0BCF1480F05D14FF0010C0CFA34
:1004500000FCC2F810C0401C0828D1D31460B1F8C9
:1004600000C0BCF1FF0F34DD546800202EE000F125
:10047000080C4FF0010808FA0CF3B1F800C00CEAC0
:1004800003069E4221D183004FF00F0C0CFA03F7B4
:10049000BC4305FA03FC4CEA040491F803C0BCF128
:1004A000280F05D100F1080C08FA0CF8C2F81480E6
:1004B00091F803C0BCF1480F07D100F1080C4FF0D0
:1004C000010808FA0CF8C2F81080401C0828CED3A6
:1004D0005460BDE8F081416170470161704700BF21
:1004E000FEE700BFFEE7704702490143024A116080
:1004F000704700000000FA050CED00E070470000B6
:1005000029B1064A92690243044B9A6104E0034A06
:1005100092698243014B9A617047000000100240CB
:10052000704710B500F002F810BD00000CB50020B7
:10053000019000903348006840F4803031490860F1
:1005400000BF3048006800F4003000900198401C63
:100550000190009818B90198B0F5A06FF1D1294821
:10056000006800F4003010B10120009001E000208C
:1005700000900098012843D12348006840F0100003
:10058000214908600846006820F00300086008461A
:10059000006840F0020008601A4840681949486045
:1005A0000846406848600846406840F480604860FB
:1005B0000846406820F47C1048600846406840F4D3
:1005C000E81048600846006840F08070086000BF8E
:1005D0000C48006800F000700028F9D00948406815
:1005E00020F00300074948600846406840F00200D8
:1005F000486000BF0348406800F00C000828F9D1AB
:100600000CBD0000001002400020024070470000B6
:1006100010B51348006840F0010011490860084611
:100620004068104908400E494860084600680E4975
:1006300008400B4908600846006820F480200860E4
:100640000846406820F4FE0048604FF41F008860B0
:10065000FFF767FF4FF000600449086010BD00001D
:10066000001002400000FFF8FFFFF6FE08ED00E07A
:1006700010B5002407E000F02BF83220FFF7F8FD5A
:1006800000F006F8641C042CF5DB10BD00BFFEE78B
:1006900010B54FF480710248FFF71DFF10BD000038
:1006A0000008014008B501210420FFF729FF1020B0
:1006B0008DF803000001ADF8000003208DF8020062
:1006C00069460248FFF77CFE08BD000000080140B3
:1006D00010B54FF480710248FFF7FFFE10BD000017
:1006E00000080140FFF7DEFF00F00EF8FFF7F0FF13
:1006F00009E02020FFF7E6FD012804D1FFF7B8FF4D
:100700002020FFF7D9FDF4E71FB501210820FFF7EE
:10071000F7FE01210846FFF7F3FE28208DF80F00B1
:100720002020ADF80C0003208DF80E0003A912481C
:10073000FFF746FE05210120FFF722FE2020019051
:1007400001208DF80A0000208DF808000C208DF89B
:10075000090001A8FFF7CAFD4FF4A060FFF7C4FE2F
:1007600032208DF8000001208DF803008DF8010083
:100770008DF802001FBD0000000C01408C0700082E
:0C07800000000020600600006C01000872
:0400000508000131BD
:00000001FF
